S0100000656C657661746F722E73726563B2
S113000045C0000060C000005EC000005CC000008D
S11300105AC0000058C0000056C0000054C0000080
S113002052C0000050C000004EC000004CC0000090
S11300304AC00000CFC0000046C0000044C0000019
S113004042C0000040C000003EC000003CC00000B0
S11300503AC0000038C0000036C0000034C00000C0
S113006032C0000030C000002EC000002CC00000D0
S11300702AC0000028C0000026C0000024C00000E0
S113008022C0000020C000001EC0000011241FBEBA
S1130090CFEFD0E4DEBFCDBF11E0A0E0B1E0ECE8EB
S11300A0F4E000E00BBF02C007900D92A830B10746
S11300B0D9F721E0A8E0B1E001C01D92A532B20752
S11300C0E1F741D1E1C19CCF20B18130910561F0CC
S11300D024F4009709F443C018C08230910539F024
S11300E08330910559F011C020FF16C03AC08091A9
S11300F01E01823088F010921E0125C080911E01DD
S1130100823008F110921E0107C08230910521F05F
S113011083309105C1F025C080910001813029F41C
S1130120809103018093240106C0823021F48091E0
S113013002018093240180911E018F5F80931E0130
S113014082E090E00EC080910101809324018091AF
S11301501E018F5F80931E0183E090E002C081E066
S113016090E0209124012BB90895609304017093C9
S11301700501809306019093070160931F0170931A
S11301802001809321019093220108958BE08093B4
S113019081008DE790E0909389008093880082E04D
S11301A080936F0010928500109284008091040166
S11301B090910501A0910601B091070180931F0160
S11301C090932001A0932101B09322018FB78068FE
S11301D08FBF08951F920F920FB60F9211248F9321
S11301E09F93AF93BF9380911F0190912001A091A1
S11301F02101B09122010197A109B10980931F0146
S113020090932001A0932101B0932201892B8A2B82
S11302108B2B99F481E080932301809104019091C8
S11302200501A0910601B091070180931F019093ED
S11302302001A0932101B0932201BF91AF919F911E
S11302408F910F900FBE0F901F9018958FEE88B965
S11302500000309B29C0319B29C0329B29C0339BAD
S113026029C08FED88B90000309B26C0319B26C081
S1130270329B26C0339B26C08FEB88B90000309B8D
S113028023C0319B23C0329B23C0339B23C08FE701
S113029088B90000309B20C0319B20C0329B20C015
S11302A0339B20C080E0089581E3089584E308959A
S11302B087E308958AE2089582E3089585E3089523
S11302C088E3089580E3089583E3089586E3089519
S11302D089E3089583E2089581E4089582E408950A
S11302E083E4089584E40895CF93DF93EC01AEDFB3
S11302F0209721F0C130D10521F00FC0C1E0D0E03A
S11303000CC0813321F481E0809300010AC0823360
S113031021F482E0809300010BC0809100018130C0
S113032029F4809103018093240106C0823021F4D2
S11303308091020180932401809124018BB9CE0124
S1130340DF91CF91089511B88FEF82B98AB91BB8A4
S113035080EF87B98FE088B904EF11E0D0E0C0E006
S113036054E640E030E020E004C0062F172FD82FD9
S1130370C92F652F742F832F922F202F312F4D2FAC
S11303805C2F60D0502F412F3D2F2C2F611571050C
S11303908105910551F764E670E080E090E0202F3C
S11303A0312F4D2F5C2F4ED069017A0164EF71E03B
S11303B080E090E0202F312F4D2F5C2F43D0E3E1DC
S11303C0F1E01082C182D282E382F482C582D682B5
S11303D0E782F08684E791E092878187E8E0F1E0A4
S11303E01082218332834383548325833683478356
S11303F0508784E690E092878187602F712F8D2F3C
S11304009C2FB3DEC3DE03E111E0C8E0D1E0D801E4
S11304108C911996ED91FC911A97082E000C990B6A
S11304200995F80180838881E985FA85082E000CF6
S1130430990B09958883809123018823E1F3109215
S11304402301E5CFA1E21A2EAA1BBB1BFD010DC09F
S1130450AA1FBB1FEE1FFF1FA217B307E407F50770
S113046020F0A21BB30BE40BF50B661F771F881F4C
S1130470991F1A9469F760957095809590959B01E2
S10F0480AC01BD01CF010895F894FFCF3A
S10B048C01FFC8F601000000A5
S9030000FC
