S0100000656C657661746F722E73726563B2
S113000045C0000060C000005EC000005CC000008D
S11300105AC0000058C0000056C0000054C0000080
S113002052C0000050C000004EC000004CC0000090
S11300304AC00000CFC0000046C0000044C0000019
S113004042C0000040C000003EC000003CC00000B0
S11300503AC0000038C0000036C0000034C00000C0
S113006032C0000030C000002EC000002CC00000D0
S11300702AC0000028C0000026C0000024C00000E0
S113008022C0000020C000001EC0000011241FBEBA
S1130090CFEFD0E4DEBFCDBF11E0A0E0B1E0ECE8EB
S11300A0F4E000E00BBF02C007900D92AA30B10744
S11300B0D9F721E0AAE0B1E001C01D92A632B2074F
S11300C0E1F741D1E1C19CCF20B18130910561F0CC
S11300D024F4009709F443C018C08230910539F024
S11300E08330910559F011C020FF16C03AC08091A9
S11300F02001823088F01092200125C080912001D7
S1130100823008F11092200107C08230910521F05D
S113011083309105C1F025C080910101813029F41B
S1130120809104018093000106C0823021F4809103
S1130130030180930001809120018F5F809320014F
S113014082E090E00EC080910201809300018091D2
S113015020018F5F8093200183E090E002C081E062
S113016090E0209100012BB90895609305017093EC
S11301700601809307019093080160932101709315
S11301802201809323019093240108958BE08093AE
S113019081008DE790E0909389008093880082E04D
S11301A080936F0010928500109284008091050165
S11301B090910601A0910701B0910801809321015B
S11301C090932201A0932301B09324018FB78068F8
S11301D08FBF08951F920F920FB60F9211248F9321
S11301E09F93AF93BF938091210190912201A0919D
S11301F02301B09124010197A109B1098093210140
S113020090932201A0932301B0932401892B8A2B7C
S11302108B2B99F481E080932501809105019091C5
S11302200601A0910701B0910801809321019093E8
S11302302201A0932301B0932401BF91AF919F9118
S11302408F910F900FBE0F901F9018958FEE88B965
S11302500000309B29C0319B29C0329B29C0339BAD
S113026029C08FED88B90000309B26C0319B26C081
S1130270329B26C0339B26C08FEB88B90000309B8D
S113028023C0319B23C0329B23C0339B23C08FE701
S113029088B90000309B20C0319B20C0329B20C015
S11302A0339B20C080E0089581E3089584E308959A
S11302B087E308958AE2089582E3089585E3089523
S11302C088E3089580E3089583E3089586E3089519
S11302D089E3089583E2089581E4089582E408950A
S11302E083E4089584E40895CF93DF93EC01AEDFB3
S11302F0209721F0C130D10521F00FC0C1E0D0E03A
S11303000CC0813321F481E0809301010AC082335F
S113031021F482E0809301010BC0809101018130BE
S113032029F4809104018093000106C0823021F4F5
S11303308091030180930001809100018BB9CE016B
S1130340DF91CF91089511B88FEF82B98AB91BB8A4
S113035080EF87B98FE088B904EF11E0D0E0C0E006
S113036054E640E030E020E004C0062F172FD82FD9
S1130370C92F652F742F832F922F202F312F4D2FAC
S11303805C2F60D0502F412F3D2F2C2F611571050C
S11303908105910551F764E670E080E090E0202F3C
S11303A0312F4D2F5C2F4ED069017A0164EF71E03B
S11303B080E090E0202F312F4D2F5C2F43D0E5E1DA
S11303C0F1E01082C182D282E382F482C582D682B5
S11303D0E782F08684E791E092878187EAE0F1E0A2
S11303E01082218332834383548325833683478356
S11303F0508784E690E092878187602F712F8D2F3C
S11304009C2FB3DEC3DE05E111E0CAE0D1E0D801E0
S11304108C911996ED91FC911A97082E000C990B6A
S11304200995F80180838881E985FA85082E000CF6
S1130430990B09958883809125018823E1F3109213
S11304402501E5CFA1E21A2EAA1BBB1BFD010DC09D
S1130450AA1FBB1FEE1FFF1FA217B307E407F50770
S113046020F0A21BB30BE40BF50B661F771F881F4C
S1130470991F1A9469F760957095809590959B01E2
S10F0480AC01BD01CF010895F894FFCF3A
S10D048C0101FFC8F60100000000A2
S9030000FC
