:1000000045C0000060C000005EC000005CC0000091
:100010005AC0000058C0000056C0000054C0000084
:1000200052C0000050C000004EC000004CC0000094
:100030004AC00000B1C0000046C0000044C000003B
:1000400042C0000040C000003EC000003CC00000B4
:100050003AC0000038C0000036C0000034C00000C4
:1000600032C0000030C000002EC000002CC00000D4
:100070002AC0000028C0000026C0000024C00000E4
:1000800022C0000020C000001EC0000011241FBEBE
:10009000CFEFD0E4DEBFCDBF11E0A0E0B1E0E2E7FA
:1000A000F2E000E00BBF02C007900D92A430B10750
:1000B000D9F721E0A4E0B1E001C01D92A431B2075C
:1000C000E1F7A6D0D4C09CCF20B1322F317023B13C
:1000D0008130910531F08230910549F0009769F443
:1000E00017C0311119C082E090E020E01EC0332318
:1000F000B9F081E090E023E018C08130910591F0E3
:100100008230910511F420E010C0209522700DC0BE
:1001100081E090E023E009C081E090E023E005C0A9
:1001200020E003C081E090E023E025B908956093CA
:100130000001709301018093020190930301609389
:100140000F01709310018093110190931201089593
:100150008BE0809381008DE790E0909389008093FD
:10016000880082E080936F001092850010928400D6
:100170008091000190910101A0910201B0910301D1
:1001800080930F0190931001A0931101B09312017D
:100190008FB780688FBF08951F920F920FB60F928E
:1001A00011248F939F93AF93BF9380910F019091F0
:1001B0001001A0911101B09112010197A109B1099B
:1001C00080930F0190931001A0931101B09312013D
:1001D000892B8A2B8B2B99F481E0809313018091DA
:1001E000000190910101A0910201B091030180935F
:1001F0000F0190931001A0931101B0931201BF91D0
:10020000AF919F918F910F900FBE0F901F901895F7
:100210008FEF84B915B811B882B9E4E0F1E010822B
:1002200084E690E0A0E0B0E081839283A383B4836E
:1002300085839683A783B08784E690E09287818741
:1002400064E670E080E090E072DF82DFC4E0D1E03D
:100250008881E985FA85082E000C990B0995888319
:10026000809113018823E1F310921301F1CFF894E8
:02027000FFCFBE
:040272000100000087
:00000001FF
