S0100000656C657661746F722E73726563B2
S113000045C0000060C000005EC000005CC000008D
S11300105AC0000058C0000056C0000054C0000080
S113002052C0000050C000004EC000004CC0000090
S11300304AC0000049C0000046C0000044C000009F
S113004042C0000040C000003EC000003CC00000B0
S11300503AC0000038C0000036C0000034C00000C0
S113006032C0000030C000002EC000002CC00000D0
S11300702AC0000028C0000026C0000024C00000E0
S113008022C0000020C000001EC0000011241FBEBA
S1130090CFEFD0E4DEBFCDBF11E0A0E0B1E0ECE5EE
S11300A0F1E000E00BBF02C007900D92A430B1074D
S11300B0D9F721E0A4E0B1E001C01D92A930B20754
S11300C0E1F73ED049C09CCF1F920F920FB60F921A
S11300D011248F939F93AF93BF93809104019091C8
S11300E00501A0910601B09107010197A109B10989
S11300F08093040190930501A0930601B093070136
S1130100892B8A2B8B2B99F481E0809308018091B1
S1130110000190910101A0910201B091030180932B
S1130120040190930501A0930601B0930701BF91C8
S1130130AF919F918F910F900FBE0F901F901895C4
S113014011B88FEF82B98AB91BB884B915B880EF9A
S10F015087B98FE088B9FFCFF894FFCF87
S107015C010000009A
S9030000FC
