:1000000045C0000060C000005EC000005CC0000091
:100010005AC0000058C0000056C0000054C0000084
:1000200052C0000050C000004EC000004CC0000094
:100030004AC00000FFC0000046C0000044C00000ED
:1000400042C0000040C000003EC000003CC00000B4
:100050003AC0000038C0000036C0000034C00000C4
:1000600032C0000030C000002EC000002CC00000D4
:100070002AC0000028C0000026C0000024C00000E4
:1000800022C0000020C000001EC0000011241FBEBE
:10009000CFEFD0E4DEBFCDBF11E0A0E0B1E0E2E7FA
:1000A000F5E000E00BBF02C007900D92AC30B10745
:1000B000D9F721E0ACE0B1E001C01D92A733B2074F
:1000C000E1F76FD154C29CCF20B18130910561F02E
:1000D00024F4009709F444C01CC08230910559F003
:1000E0008330910579F015C020FD3CC020912F018F
:1000F0002223B1F037C080913001823088F0109215
:10010000300123C0809130018230F8F0109230012C
:1001100007C08230910521F083309105B1F022C0F3
:1001200080910001813021F486EF8093360105C073
:10013000823019F488EC80933601809130018F5F12
:100140008093300182E090E00DC08FEF8093360104
:10015000809130018F5F8093300183E090E002C096
:1001600081E090E0209136012BB90895AC0180B177
:1001700081704130510569F04230510591F04115CF
:100180005105C9F480910001813099F042E050E0BE
:1001900012C0811110C081E080932E0110922D01B8
:1001A0000AC0811108C010922E0181E080932D01B8
:1001B00002C041E050E090912D01990F20912E0155
:1001C000920F937095B9CA010895609301017093DD
:1001D00002018093030190930401609331017093B5
:1001E0003201809333019093340108958BE0809322
:1001F00081008DE790E0909389008093880082E0F1
:1002000080936F001092850010928400809101010C
:1002100090910201A0910301B091040180933101FA
:1002200090933201A0933301B09334018FB780686B
:100230008FBF08951F920F920FB60F9211248F93C4
:100240009F93AF93BF938091310190913201A09120
:100250003301B09134010197A109B10980933101B3
:1002600090933201A0933301B0933401892B8A2BF0
:100270008B2B99F481E0809335018091010190915D
:100280000201A0910301B091040180933101909388
:100290003201A0933301B0933401BF91AF919F918C
:1002A0008F910F900FBE0F901F9018958FEE88B909
:1002B0000000309B29C0319B29C0329B29C0339B51
:1002C00029C08FED88B90000309B26C0319B26C025
:1002D000329B26C0339B26C08FEB88B90000309B31
:1002E00023C0319B23C0329B23C0339B23C08FE7A5
:1002F00088B90000309B20C0319B20C0329B20C0B9
:10030000339B20C080E0089581E3089584E308953D
:1003100087E308958AE2089582E3089585E30895C6
:1003200088E3089580E3089583E3089586E30895BC
:1003300089E3089583E2089581E4089582E40895AD
:1003400083E4089584E40895CF93DF93EC01AEDF56
:10035000209721F0C130D10521F00FC0C1E0D0E0DD
:100360000CC0813321F481E0809300010AC0823304
:1003700021F482E0809300010AC080910001813065
:1003800021F486EF8093360105C0823019F488ECA1
:1003900080933601809136018BB9CE01DF91CF91E8
:1003A0000895CF93DF9300D000D000D0CDB7DEB753
:1003B00011B88FEF82B98AB91BB884B915B880EF2C
:1003C00087B98FE088B90F2EF4EFDF2EF02DCC2403
:1003D000C394B12CA12C54E640E030E020E004C0EE
:1003E000D62EC72EB82EA92E652F742F832F922FAD
:1003F0002D2D3C2D4B2D5A2D98D05D2D4C2D3B2D68
:100400002A2D611571058105910551F70F2EF4E62E
:10041000EF2EF02DF12C00E010E004C0E62EF72EB8
:10042000082F192F6D2D7C2D8B2D9A2D2E2D3F2DC4
:10043000402F512F7AD0DE2CCF2CB02EA12E61155B
:1004400071058105910551F764E670E080E090E068
:100450002E2D3F2D402F512F68D049015A0164EFB6
:1004600071E080E090E02E2D3F2D402F512F5DD088
:1004700086E0E5E0F1E0DE01119601900D928A95AB
:10048000E1F7E2E2F1E0108281829282A382B482FB
:1004900085829682A782B08684EA91E092878187DE
:1004A000E7E1F1E010822183328343835483258383
:1004B00036834783508784E690E092878187ECE01B
:1004C000F1E0108281829282A382B4828582968238
:1004D000A782B08686EB90E0928781876E2D7F2D74
:1004E000802F912F72DE82DE6E0187E0C80ED11C54
:1004F000DE0111967D01F701019111917F01D80173
:100500008C911996ED91FC911A97082E000C990B7D
:100510000995F8018083EC14FD0469F78091350199
:100520008823E1F310923501E3CFA1E21A2EAA1B32
:10053000BB1BFD010DC0AA1FBB1FEE1FFF1FA21793
:10054000B307E407F50720F0A21BB30BE40BF50B90
:10055000661F771F881F991F1A9469F76095709519
:10056000809590959B01AC01BD01CF010895F89451
:02057000FFCFBB
:0C0572000101000000220117010C010033
:00000001FF
