:1000000045C0000060C000005EC000005CC0000091
:100010005AC0000058C0000056C0000054C0000084
:1000200052C0000050C000004EC000004CC0000094
:100030004AC000007EC0000046C0000044C000006E
:1000400042C0000040C000003EC000003CC00000B4
:100050003AC0000038C0000036C0000034C00000C4
:1000600032C0000030C000002EC000002CC00000D4
:100070002AC0000028C0000026C0000024C00000E4
:1000800022C0000020C000001EC0000011241FBEBE
:10009000CFEFD0E4DEBFCDBF11E0A0E0B1E0E8EFEC
:1000A000F2E000E00BBF02C007900D92A630B1074E
:1000B000D9F721E0A6E0B1E001C01D92A631B20758
:1000C000E1F7E5D017C19CCF609301017093020165
:1000D00080930301909304016093110170931201C6
:1000E000809313019093140108958BE08093810015
:1000F0008DE790E0909389008093880082E0809360
:100100006F001092850010928400809101019091FF
:100110000201A0910301B091040180931101909319
:100120001201A0931301B09314018FB780688FBFA1
:1001300008951F920F920FB60F9211248F939F93E1
:10014000AF93BF938091110190911201A09113017F
:10015000B09114010197A109B10980931101909305
:100160001201A0931301B0931401892B8A2B8B2BBE
:1001700099F481E080931501809101019091020131
:10018000A0910301B0910401809311019093120199
:10019000A0931301B0931401BF91AF919F918F91E0
:1001A0000F900FBE0F901F9018958FEE88B900002A
:1001B000309B29C0319B29C0329B29C0339B29C069
:1001C0008FED88B90000309B26C0319B26C0329B42
:1001D00026C0339B26C08FEB88B90000309B23C01C
:1001E000319B23C0329B23C0339B23C08FE788B948
:1001F0000000309B20C0319B20C0329B20C0339B2D
:1002000020C080E0089581E3089584E3089587E3A2
:1002100008958AE2089582E3089585E3089588E3C6
:10022000089580E3089583E3089586E3089589E3BC
:10023000089583E2089581E4089582E4089583E4B3
:10024000089584E408950F931F93CF938C0183B195
:100250008095C82FC270A9DF0115110521F001306A
:10026000110521F00EC001E010E00BC0813321F434
:1002700081E08093000105C0823319F482E080930D
:100280000001C5B9C801CF911F910F91089511B810
:100290008FEF82B984B915B880EF87B98FE088B93C
:1002A000E6E0F1E0108284E690E0A0E0B0E0818337
:1002B0009283A383B48385839683A783B08783E2E5
:1002C00091E09287818764E670E080E090E0FCDE58
:1002D0000CDFC6E0D1E08881E985FA85082E000CA4
:1002E000990B09958883809115018823E1F3109279
:0802F0001501F1CFF894FFCFD6
:0602F800010100000000FE
:00000001FF
