:1000000045C0000060C000005EC000005CC0000091
:100010005AC0000058C0000056C0000054C0000084
:1000200052C0000050C000004EC000004CC0000094
:100030004AC000003FC1000046C0000044C00000AC
:1000400042C0000040C000003EC000003CC00000B4
:100050003AC0000038C0000036C0000034C00000C4
:1000600032C0000030C000002EC000002CC00000D4
:100070002AC0000028C0000026C0000024C00000E4
:1000800022C0000020C000001EC0000011241FBEBE
:10009000CFEFD0E4DEBFCDBF11E0A0E0B1E0E4E7F8
:1000A000F6E000E00BBF02C007900D92AC30B10744
:1000B000D9F721E0ACE0B1E001C01D92A833B2074E
:1000C000E1F7ECD1D5C29CCF20B18130910561F030
:1000D00024F4009709F44BC023C08230910571F0DD
:1000E00083309105B1F01CC020FD46C02091300145
:1000F000211142C081E08093300119C0809130010C
:100100008823C1F180913101823088F01092310151
:1001100023C0809131018230F8F01092310107C084
:100120008230910521F083309105B1F008958091DE
:100130000101813021F486EF8093370105C08230C0
:1001400019F488EC80933701809131018F5F80939F
:10015000310182E090E008958FEF80933701809124
:1001600031018F5F8093310183E090E0089581E059
:1001700090E0089581E090E0089520B181309105EC
:1001800061F024F4009709F44DC023C0823091053A
:10019000B1F083309105C1F01CC020FD43C08091B7
:1001A0000101823029F4809100018130D9F51BC012
:1001B0008130C1F5809100018230A1F524C0809189
:1001C0002D01843180F02EC080912D018431D8F032
:1001D00029C08230910539F083309105A1F081303A
:1001E000910551F51FC081E080932F0110922E01DF
:1001F00080912D018F5F80932D0182E0809300011B
:1002000082E090E019C010922F0191E090932E01AE
:1002100080912D018F5F80932D019093000183E0E9
:1002200090E00AC010922F0110922E0110922D0121
:100230001092300181E090E020912E01220F309148
:100240002F01230F237025B9089560930201709345
:100250000301809304019093050160933201709330
:100260003301809334019093350108958BE080939E
:1002700081008DE790E0909389008093880082E070
:1002800080936F001092850010928400809102018B
:1002900090910301A0910401B09105018093320176
:1002A00090933301A0933401B09335018FB78068E8
:1002B0008FBF08951F920F920FB60F9211248F9344
:1002C0009F93AF93BF938091320190913301A0919E
:1002D0003401B09135010197A109B1098093320130
:1002E00090933301A0933401B0933501892B8A2B6D
:1002F0008B2B99F481E080933601809102019091DB
:100300000301A0910401B091050180933201909303
:100310003301A0933401B0933501BF91AF919F9108
:100320008F910F900FBE0F901F901895813081F024
:10033000E1ECF0E0808188618083E2ECF0E0808194
:100340008660808383E38093C4001092C500089583
:10035000E9ECF0E0808188618083EAECF0E0808164
:100360008660808383E38093CC001092CD00089553
:10037000613041F0E0ECF0E0908195FFFDCF80939B
:10038000C6000895E8ECF0E0908195FFFDCF8093E2
:10039000CE0008958FEE88B90000309B29C0319BB4
:1003A00029C0329B29C0339B29C08FED88B900003A
:1003B000309B26C0319B26C0329B26C0339B26C073
:1003C0008FEB88B90000309B23C0319B23C0329B48
:1003D00023C0339B23C08FE788B90000309B20C027
:1003E000319B20C0329B20C0339B20C080E0089509
:1003F00081E3089584E3089587E308958AE20895E8
:1004000082E3089585E3089588E3089580E30895DD
:1004100083E3089586E3089589E3089583E20895C8
:1004200081E4089582E4089583E4089584E40895BE
:10043000CF93DF93EC01AEDF209721F0C130D105DF
:1004400021F017C0C1E0D0E014C0813341F481E055
:10045000809301018091C00085FD13C01BC08233D1
:1004600041F482E0809301018091C00085FD0FC0BE
:1004700011C08091C00085FF0DC0809101018130C5
:1004800021F460E086EF74DF05C0823019F460E08B
:1004900088EC6EDFCE01DF91CF910895CF93DF938B
:1004A00000D000D000D0CDB7DEB711B88FEF82B941
:1004B0008AB91BB884B915B880EF87B98FE088B9BD
:1004C0000F2EF4EFDF2EF02DCC24C394B12CA12CF1
:1004D00054E640E030E020E004C0D62EC72EB82E0F
:1004E000A92E652F742F832F922F2D2D3C2D4B2D50
:1004F0005A2D9CD05D2D4C2D3B2D2A2D611571055B
:100500008105910551F70F2EF4E6EF2EF02DF12C19
:1005100000E010E004C0E62EF72E082F192F6D2DF5
:100520007C2D8B2D9A2D2E2D3F2D402F512F7ED09F
:10053000DE2CCF2CB02EA12E611571058105910501
:1005400051F764E670E080E090E02E2D3F2D402FC3
:10055000512F6CD049015A0164EF71E080E090E0C6
:100560002E2D3F2D402F512F61D086E0E6E0F1E0A7
:10057000DE01119601900D928A95E1F7E2E2F1E039
:10058000108281829282A382B48285829682A7821F
:10059000B08688E192E092878187E7E1F1E01082FE
:1005A0002183328343835483258336834783508753
:1005B00084E690E092878187ECE0F1E0108281820E
:1005C0009282A382B48285829682A782B0868DEBC6
:1005D00090E0928781876E2D7F2D802F912F35DEC1
:1005E00045DE80E0A3DE81E0A1DE6E0187E0C80E7B
:1005F000D11CDE0111967D01F701019111917F015E
:10060000D8018C911996ED91FC911A97082E000C47
:10061000990B0995F8018083EC14FD0469F780912A
:1006200036018823E1F310923601E3CFA1E21A2EBE
:10063000AA1BBB1BFD010DC0AA1FBB1FEE1FFF1F86
:10064000A217B307E407F50720F0A21BB30BE40BD6
:10065000F50B661F771F881F991F1A9469F760951D
:100660007095809590959B01AC01BD01CF010895D7
:04067000F894FFCF2C
:0C067400010101000000220117010C012F
:00000001FF
